{
  "_format": "hh-sol-artifact-1",
  "contractName": "Oktogram",
  "sourceName": "contracts/Oktogram.sol",
  "abi": [
    {
      "inputs": [
        {
          "internalType": "address",
          "name": "owner",
          "type": "address"
        }
      ],
      "name": "OwnableInvalidOwner",
      "type": "error"
    },
    {
      "inputs": [
        {
          "internalType": "address",
          "name": "account",
          "type": "address"
        }
      ],
      "name": "OwnableUnauthorizedAccount",
      "type": "error"
    },
    {
      "anonymous": false,
      "inputs": [
        {
          "indexed": true,
          "internalType": "address",
          "name": "previousOwner",
          "type": "address"
        },
        {
          "indexed": true,
          "internalType": "address",
          "name": "newOwner",
          "type": "address"
        }
      ],
      "name": "OwnershipTransferred",
      "type": "event"
    },
    {
      "inputs": [],
      "name": "addFriend",
      "outputs": [],
      "stateMutability": "nonpayable",
      "type": "function"
    },
    {
      "inputs": [
        {
          "internalType": "string",
          "name": "username",
          "type": "string"
        },
        {
          "internalType": "string",
          "name": "image",
          "type": "string"
        },
        {
          "internalType": "string",
          "name": "content",
          "type": "string"
        },
        {
          "internalType": "address",
          "name": "nftAddress",
          "type": "address"
        },
        {
          "internalType": "uint256",
          "name": "nftTokenId",
          "type": "uint256"
        },
        {
          "internalType": "uint256",
          "name": "targetLikes",
          "type": "uint256"
        }
      ],
      "name": "createGiveawayPost",
      "outputs": [],
      "stateMutability": "nonpayable",
      "type": "function"
    },
    {
      "inputs": [
        {
          "internalType": "string",
          "name": "username",
          "type": "string"
        },
        {
          "internalType": "string",
          "name": "image",
          "type": "string"
        },
        {
          "internalType": "string",
          "name": "content",
          "type": "string"
        }
      ],
      "name": "createPost",
      "outputs": [],
      "stateMutability": "nonpayable",
      "type": "function"
    },
    {
      "inputs": [
        {
          "internalType": "string",
          "name": "username",
          "type": "string"
        },
        {
          "internalType": "string",
          "name": "image",
          "type": "string"
        }
      ],
      "name": "createStory",
      "outputs": [],
      "stateMutability": "nonpayable",
      "type": "function"
    },
    {
      "inputs": [],
      "name": "getAllPosts",
      "outputs": [
        {
          "components": [
            {
              "internalType": "uint256",
              "name": "id",
              "type": "uint256"
            },
            {
              "components": [
                {
                  "internalType": "address",
                  "name": "author",
                  "type": "address"
                },
                {
                  "internalType": "string",
                  "name": "name",
                  "type": "string"
                }
              ],
              "internalType": "struct Oktogram.User",
              "name": "user",
              "type": "tuple"
            },
            {
              "internalType": "string",
              "name": "image",
              "type": "string"
            },
            {
              "internalType": "string",
              "name": "content",
              "type": "string"
            },
            {
              "internalType": "uint256",
              "name": "createdAt",
              "type": "uint256"
            },
            {
              "internalType": "uint256",
              "name": "likes",
              "type": "uint256"
            },
            {
              "internalType": "uint256",
              "name": "tips",
              "type": "uint256"
            },
            {
              "internalType": "bool",
              "name": "isGiveaway",
              "type": "bool"
            },
            {
              "internalType": "bool",
              "name": "giveawayCompleted",
              "type": "bool"
            },
            {
              "internalType": "address",
              "name": "nftAddress",
              "type": "address"
            },
            {
              "internalType": "uint256",
              "name": "nftTokenId",
              "type": "uint256"
            },
            {
              "internalType": "uint256",
              "name": "targetLikes",
              "type": "uint256"
            }
          ],
          "internalType": "struct Oktogram.Post[]",
          "name": "",
          "type": "tuple[]"
        }
      ],
      "stateMutability": "view",
      "type": "function"
    },
    {
      "inputs": [],
      "name": "getAllStories",
      "outputs": [
        {
          "components": [
            {
              "internalType": "uint256",
              "name": "id",
              "type": "uint256"
            },
            {
              "components": [
                {
                  "internalType": "address",
                  "name": "author",
                  "type": "address"
                },
                {
                  "internalType": "string",
                  "name": "name",
                  "type": "string"
                }
              ],
              "internalType": "struct Oktogram.User",
              "name": "user",
              "type": "tuple"
            },
            {
              "internalType": "string",
              "name": "image",
              "type": "string"
            },
            {
              "internalType": "uint256",
              "name": "createdAt",
              "type": "uint256"
            }
          ],
          "internalType": "struct Oktogram.Story[]",
          "name": "",
          "type": "tuple[]"
        }
      ],
      "stateMutability": "view",
      "type": "function"
    },
    {
      "inputs": [],
      "name": "owner",
      "outputs": [
        {
          "internalType": "address",
          "name": "",
          "type": "address"
        }
      ],
      "stateMutability": "view",
      "type": "function"
    },
    {
      "inputs": [],
      "name": "renounceOwnership",
      "outputs": [],
      "stateMutability": "nonpayable",
      "type": "function"
    },
    {
      "inputs": [
        {
          "internalType": "uint256",
          "name": "postId",
          "type": "uint256"
        }
      ],
      "name": "toggleLike",
      "outputs": [],
      "stateMutability": "nonpayable",
      "type": "function"
    },
    {
      "inputs": [
        {
          "internalType": "address",
          "name": "newOwner",
          "type": "address"
        }
      ],
      "name": "transferOwnership",
      "outputs": [],
      "stateMutability": "nonpayable",
      "type": "function"
    }
  ],
  "bytecode": "0x6080604052600060015560006002553480156200001b57600080fd5b5033600073ffffffffffffffffffffffffffffffffffffffff168173ffffffffffffffffffffffffffffffffffffffff1603620000925760006040517f1e4fbdf7000000000000000000000000000000000000000000000000000000008152600401620000899190620001b3565b60405180910390fd5b620000a381620000aa60201b60201c565b50620001d0565b60008060009054906101000a900473ffffffffffffffffffffffffffffffffffffffff169050816000806101000a81548173ffffffffffffffffffffffffffffffffffffffff021916908373ffffffffffffffffffffffffffffffffffffffff1602179055508173ffffffffffffffffffffffffffffffffffffffff168173ffffffffffffffffffffffffffffffffffffffff167f8be0079c531659141344cd1fd0a4f28419497f9722a3daafe3b4186f6b6457e060405160405180910390a35050565b600073ffffffffffffffffffffffffffffffffffffffff82169050919050565b60006200019b826200016e565b9050919050565b620001ad816200018e565b82525050565b6000602082019050620001ca6000830184620001a2565b92915050565b6128d280620001e06000396000f3fe608060405234801561001057600080fd5b506004361061009e5760003560e01c80639151d403116100665780639151d40314610123578063a5d9335c1461013f578063b177c3f71461015b578063e8a4a1eb14610165578063f2fde38b146101815761009e565b8063191bbe2a146100a357806330561100146100c157806354398d18146100df578063715018a6146100fb5780638da5cb5b14610105575b600080fd5b6100ab61019d565b6040516100b89190611960565b60405180910390f35b6100c961040e565b6040516100d69190611b71565b60405180910390f35b6100f960048036038101906100f49190611bd3565b6107c6565b005b610103610977565b005b61010d61098b565b60405161011a9190611c0f565b60405180910390f35b61013d60048036038101906101389190611d5f565b6109b4565b005b61015960048036038101906101549190611e03565b610aa3565b005b610163610dcd565b005b61017f600480360381019061017a9190611ee4565b610dcf565b005b61019b60048036038101906101969190611f8b565b610f1f565b005b6060600060025467ffffffffffffffff8111156101bd576101bc611c34565b5b6040519080825280602002602001820160405280156101f657816020015b6101e361162e565b8152602001906001900390816101db5790505b5090506000600190505b6002548111610406576005600082815260200190815260200160002060405180608001604052908160008201548152602001600182016040518060400160405290816000820160009054906101000a900473ffffffffffffffffffffffffffffffffffffffff1673ffffffffffffffffffffffffffffffffffffffff1673ffffffffffffffffffffffffffffffffffffffff1681526020016001820180546102a790611fe7565b80601f01602080910402602001604051908101604052809291908181526020018280546102d390611fe7565b80156103205780601f106102f557610100808354040283529160200191610320565b820191906000526020600020905b81548152906001019060200180831161030357829003601f168201915b505050505081525050815260200160038201805461033d90611fe7565b80601f016020809104026020016040519081016040528092919081815260200182805461036990611fe7565b80156103b65780601f1061038b576101008083540402835291602001916103b6565b820191906000526020600020905b81548152906001019060200180831161039957829003601f168201915b50505050508152602001600482015481525050826001836103d79190612047565b815181106103e8576103e761207b565b5b602002602001018190525080806103fe906120aa565b915050610200565b508091505090565b6060600060015467ffffffffffffffff81111561042e5761042d611c34565b5b60405190808252806020026020018201604052801561046757816020015b61045461165c565b81526020019060019003908161044c5790505b5090506000600190505b60015481116107be57600460008281526020019081526020016000206040518061018001604052908160008201548152602001600182016040518060400160405290816000820160009054906101000a900473ffffffffffffffffffffffffffffffffffffffff1673ffffffffffffffffffffffffffffffffffffffff1673ffffffffffffffffffffffffffffffffffffffff16815260200160018201805461051990611fe7565b80601f016020809104026020016040519081016040528092919081815260200182805461054590611fe7565b80156105925780601f1061056757610100808354040283529160200191610592565b820191906000526020600020905b81548152906001019060200180831161057557829003601f168201915b50505050508152505081526020016003820180546105af90611fe7565b80601f01602080910402602001604051908101604052809291908181526020018280546105db90611fe7565b80156106285780601f106105fd57610100808354040283529160200191610628565b820191906000526020600020905b81548152906001019060200180831161060b57829003601f168201915b5050505050815260200160048201805461064190611fe7565b80601f016020809104026020016040519081016040528092919081815260200182805461066d90611fe7565b80156106ba5780601f1061068f576101008083540402835291602001916106ba565b820191906000526020600020905b81548152906001019060200180831161069d57829003601f168201915b505050505081526020016005820154815260200160068201548152602001600782015481526020016008820160009054906101000a900460ff161515151581526020016008820160019054906101000a900460ff161515151581526020016008820160029054906101000a900473ffffffffffffffffffffffffffffffffffffffff1673ffffffffffffffffffffffffffffffffffffffff1673ffffffffffffffffffffffffffffffffffffffff16815260200160098201548152602001600a820154815250508260018361078f9190612047565b815181106107a05761079f61207b565b5b602002602001018190525080806107b6906120aa565b915050610471565b508091505090565b6000600460008381526020019081526020016000209050600073ffffffffffffffffffffffffffffffffffffffff168160010160000160009054906101000a900473ffffffffffffffffffffffffffffffffffffffff1673ffffffffffffffffffffffffffffffffffffffff1603610873576040517f08c379a000000000000000000000000000000000000000000000000000000000815260040161086a9061214f565b60405180910390fd5b6108983360076000858152602001908152602001600020610fa590919063ffffffff16565b156108e2576108c23360076000858152602001908152602001600020610fd590919063ffffffff16565b508060060160008154809291906108d89061216f565b9190505550610973565b610907336007600085815260200190815260200160002061100590919063ffffffff16565b5080600601600081548092919061091d906120aa565b91905055508060080160009054906101000a900460ff168015610948575080600a0154816006015410155b801561096357508060080160019054906101000a900460ff16155b156109725761097182611035565b5b5b5050565b61097f6111fb565b6109896000611282565b565b60008060009054906101000a900473ffffffffffffffffffffffffffffffffffffffff16905090565b600260008154809291906109c7906120aa565b919050555060006002549050600060056000838152602001908152602001600020905081816000018190555060405180604001604052803373ffffffffffffffffffffffffffffffffffffffff168152602001858152508160010160008201518160000160006101000a81548173ffffffffffffffffffffffffffffffffffffffff021916908373ffffffffffffffffffffffffffffffffffffffff1602179055506020820151816001019081610a7e9190612344565b5090505082816003019081610a939190612344565b5043816004018190555050505050565b60008111610ae6576040517f08c379a0000000000000000000000000000000000000000000000000000000008152600401610add90612488565b60405180910390fd5b60008390503373ffffffffffffffffffffffffffffffffffffffff168173ffffffffffffffffffffffffffffffffffffffff16636352211e856040518263ffffffff1660e01b8152600401610b3b91906124b7565b602060405180830381865afa158015610b58573d6000803e3d6000fd5b505050506040513d601f19601f82011682018060405250810190610b7c91906124e7565b73ffffffffffffffffffffffffffffffffffffffff1614610bd2576040517f08c379a0000000000000000000000000000000000000000000000000000000008152600401610bc990612560565b60405180910390fd5b60016000815480929190610be5906120aa565b919050555060006001549050600060046000838152602001908152602001600020905081816000018190555060405180604001604052803373ffffffffffffffffffffffffffffffffffffffff1681526020018a8152508160010160008201518160000160006101000a81548173ffffffffffffffffffffffffffffffffffffffff021916908373ffffffffffffffffffffffffffffffffffffffff1602179055506020820151816001019081610c9c9190612344565b5090505087816003019081610cb19190612344565b5086816004019081610cc39190612344565b50438160050181905550600081600601819055506000816007018190555060018160080160006101000a81548160ff021916908315150217905550858160080160026101000a81548173ffffffffffffffffffffffffffffffffffffffff021916908373ffffffffffffffffffffffffffffffffffffffff1602179055508481600901819055508381600a01819055508273ffffffffffffffffffffffffffffffffffffffff166323b872dd3330886040518463ffffffff1660e01b8152600401610d9093929190612580565b600060405180830381600087803b158015610daa57600080fd5b505af1158015610dbe573d6000803e3d6000fd5b50505050505050505050505050565b565b60016000815480929190610de2906120aa565b919050555060006001549050600060046000838152602001908152602001600020905081816000018190555060405180604001604052803373ffffffffffffffffffffffffffffffffffffffff168152602001868152508160010160008201518160000160006101000a81548173ffffffffffffffffffffffffffffffffffffffff021916908373ffffffffffffffffffffffffffffffffffffffff1602179055506020820151816001019081610e999190612344565b5090505083816003019081610eae9190612344565b5082816004019081610ec09190612344565b50438160050181905550600081600601819055506000816007018190555060008160080160006101000a81548160ff02191690831515021790555060018160080160016101000a81548160ff0219169083151502179055505050505050565b610f276111fb565b600073ffffffffffffffffffffffffffffffffffffffff168173ffffffffffffffffffffffffffffffffffffffff1603610f995760006040517f1e4fbdf7000000000000000000000000000000000000000000000000000000008152600401610f909190611c0f565b60405180910390fd5b610fa281611282565b50565b6000610fcd836000018373ffffffffffffffffffffffffffffffffffffffff1660001b611346565b905092915050565b6000610ffd836000018373ffffffffffffffffffffffffffffffffffffffff1660001b611369565b905092915050565b600061102d836000018373ffffffffffffffffffffffffffffffffffffffff1660001b61147d565b905092915050565b60006004600083815260200190815260200160002090508060080160009054906101000a900460ff1661109d576040517f08c379a000000000000000000000000000000000000000000000000000000000815260040161109490612603565b60405180910390fd5b80600a0154816006015410156110e8576040517f08c379a00000000000000000000000000000000000000000000000000000000081526004016110df9061266f565b60405180910390fd5b8060080160019054906101000a900460ff161561113a576040517f08c379a0000000000000000000000000000000000000000000000000000000008152600401611131906126db565b60405180910390fd5b6000611145836114ed565b905060006004600085815260200190815260200160002060080160029054906101000a900473ffffffffffffffffffffffffffffffffffffffff1690508073ffffffffffffffffffffffffffffffffffffffff166323b872dd308486600901546040518463ffffffff1660e01b81526004016111c393929190612580565b600060405180830381600087803b1580156111dd57600080fd5b505af11580156111f1573d6000803e3d6000fd5b5050505050505050565b6112036115bb565b73ffffffffffffffffffffffffffffffffffffffff1661122161098b565b73ffffffffffffffffffffffffffffffffffffffff1614611280576112446115bb565b6040517f118cdaa70000000000000000000000000000000000000000000000000000000081526004016112779190611c0f565b60405180910390fd5b565b60008060009054906101000a900473ffffffffffffffffffffffffffffffffffffffff169050816000806101000a81548173ffffffffffffffffffffffffffffffffffffffff021916908373ffffffffffffffffffffffffffffffffffffffff1602179055508173ffffffffffffffffffffffffffffffffffffffff168173ffffffffffffffffffffffffffffffffffffffff167f8be0079c531659141344cd1fd0a4f28419497f9722a3daafe3b4186f6b6457e060405160405180910390a35050565b600080836001016000848152602001908152602001600020541415905092915050565b6000808360010160008481526020019081526020016000205490506000811461147157600060018261139b9190612047565b90506000600186600001805490506113b39190612047565b90508082146114225760008660000182815481106113d4576113d361207b565b5b90600052602060002001549050808760000184815481106113f8576113f761207b565b5b90600052602060002001819055508387600101600083815260200190815260200160002081905550505b85600001805480611436576114356126fb565b5b600190038181906000526020600020016000905590558560010160008681526020019081526020016000206000905560019350505050611477565b60009150505b92915050565b60006114898383611346565b6114e25782600001829080600181540180825580915050600190039060005260206000200160009091909190915055826000018054905083600101600084815260200190815260200160002081905550600190506114e7565b600090505b92915050565b60008061150b600760008581526020019081526020016000206115c3565b905060008111611550576040517f08c379a000000000000000000000000000000000000000000000000000000000815260040161154790612776565b60405180910390fd5b600081424433604051602001611568939291906127ff565b6040516020818303038152906040528051906020012060001c61158b919061286b565b90506115b281600760008781526020019081526020016000206115d890919063ffffffff16565b92505050919050565b600033905090565b60006115d1826000016115f2565b9050919050565b60006115e78360000183611603565b60001c905092915050565b600081600001805490509050919050565b600082600001828154811061161b5761161a61207b565b5b9060005260206000200154905092915050565b6040518060800160405280600081526020016116486116dd565b815260200160608152602001600081525090565b604051806101800160405280600081526020016116776116dd565b81526020016060815260200160608152602001600081526020016000815260200160008152602001600015158152602001600015158152602001600073ffffffffffffffffffffffffffffffffffffffff16815260200160008152602001600081525090565b6040518060400160405280600073ffffffffffffffffffffffffffffffffffffffff168152602001606081525090565b600081519050919050565b600082825260208201905092915050565b6000819050602082019050919050565b6000819050919050565b61174c81611739565b82525050565b600073ffffffffffffffffffffffffffffffffffffffff82169050919050565b600061177d82611752565b9050919050565b61178d81611772565b82525050565b600081519050919050565b600082825260208201905092915050565b60005b838110156117cd5780820151818401526020810190506117b2565b60008484015250505050565b6000601f19601f8301169050919050565b60006117f582611793565b6117ff818561179e565b935061180f8185602086016117af565b611818816117d9565b840191505092915050565b600060408301600083015161183b6000860182611784565b506020830151848203602086015261185382826117ea565b9150508091505092915050565b60006080830160008301516118786000860182611743565b50602083015184820360208601526118908282611823565b915050604083015184820360408601526118aa82826117ea565b91505060608301516118bf6060860182611743565b508091505092915050565b60006118d68383611860565b905092915050565b6000602082019050919050565b60006118f68261170d565b6119008185611718565b93508360208202850161191285611729565b8060005b8581101561194e578484038952815161192f85826118ca565b945061193a836118de565b925060208a01995050600181019050611916565b50829750879550505050505092915050565b6000602082019050818103600083015261197a81846118eb565b905092915050565b600081519050919050565b600082825260208201905092915050565b6000819050602082019050919050565b60008115159050919050565b6119c3816119ae565b82525050565b6000610180830160008301516119e26000860182611743565b50602083015184820360208601526119fa8282611823565b91505060408301518482036040860152611a1482826117ea565b91505060608301518482036060860152611a2e82826117ea565b9150506080830151611a436080860182611743565b5060a0830151611a5660a0860182611743565b5060c0830151611a6960c0860182611743565b5060e0830151611a7c60e08601826119ba565b50610100830151611a916101008601826119ba565b50610120830151611aa6610120860182611784565b50610140830151611abb610140860182611743565b50610160830151611ad0610160860182611743565b508091505092915050565b6000611ae783836119c9565b905092915050565b6000602082019050919050565b6000611b0782611982565b611b11818561198d565b935083602082028501611b238561199e565b8060005b85811015611b5f5784840389528151611b408582611adb565b9450611b4b83611aef565b925060208a01995050600181019050611b27565b50829750879550505050505092915050565b60006020820190508181036000830152611b8b8184611afc565b905092915050565b6000604051905090565b600080fd5b600080fd5b611bb081611739565b8114611bbb57600080fd5b50565b600081359050611bcd81611ba7565b92915050565b600060208284031215611be957611be8611b9d565b5b6000611bf784828501611bbe565b91505092915050565b611c0981611772565b82525050565b6000602082019050611c246000830184611c00565b92915050565b600080fd5b600080fd5b7f4e487b7100000000000000000000000000000000000000000000000000000000600052604160045260246000fd5b611c6c826117d9565b810181811067ffffffffffffffff82111715611c8b57611c8a611c34565b5b80604052505050565b6000611c9e611b93565b9050611caa8282611c63565b919050565b600067ffffffffffffffff821115611cca57611cc9611c34565b5b611cd3826117d9565b9050602081019050919050565b82818337600083830152505050565b6000611d02611cfd84611caf565b611c94565b905082815260208101848484011115611d1e57611d1d611c2f565b5b611d29848285611ce0565b509392505050565b600082601f830112611d4657611d45611c2a565b5b8135611d56848260208601611cef565b91505092915050565b60008060408385031215611d7657611d75611b9d565b5b600083013567ffffffffffffffff811115611d9457611d93611ba2565b5b611da085828601611d31565b925050602083013567ffffffffffffffff811115611dc157611dc0611ba2565b5b611dcd85828601611d31565b9150509250929050565b611de081611772565b8114611deb57600080fd5b50565b600081359050611dfd81611dd7565b92915050565b60008060008060008060c08789031215611e2057611e1f611b9d565b5b600087013567ffffffffffffffff811115611e3e57611e3d611ba2565b5b611e4a89828a01611d31565b965050602087013567ffffffffffffffff811115611e6b57611e6a611ba2565b5b611e7789828a01611d31565b955050604087013567ffffffffffffffff811115611e9857611e97611ba2565b5b611ea489828a01611d31565b9450506060611eb589828a01611dee565b9350506080611ec689828a01611bbe565b92505060a0611ed789828a01611bbe565b9150509295509295509295565b600080600060608486031215611efd57611efc611b9d565b5b600084013567ffffffffffffffff811115611f1b57611f1a611ba2565b5b611f2786828701611d31565b935050602084013567ffffffffffffffff811115611f4857611f47611ba2565b5b611f5486828701611d31565b925050604084013567ffffffffffffffff811115611f7557611f74611ba2565b5b611f8186828701611d31565b9150509250925092565b600060208284031215611fa157611fa0611b9d565b5b6000611faf84828501611dee565b91505092915050565b7f4e487b7100000000000000000000000000000000000000000000000000000000600052602260045260246000fd5b60006002820490506001821680611fff57607f821691505b60208210810361201257612011611fb8565b5b50919050565b7f4e487b7100000000000000000000000000000000000000000000000000000000600052601160045260246000fd5b600061205282611739565b915061205d83611739565b925082820390508181111561207557612074612018565b5b92915050565b7f4e487b7100000000000000000000000000000000000000000000000000000000600052603260045260246000fd5b60006120b582611739565b91507fffffffffffffffffffffffffffffffffffffffffffffffffffffffffffffffff82036120e7576120e6612018565b5b600182019050919050565b600082825260208201905092915050565b7f506f737420646f6573206e6f7420657869737400000000000000000000000000600082015250565b60006121396013836120f2565b915061214482612103565b602082019050919050565b600060208201905081810360008301526121688161212c565b9050919050565b600061217a82611739565b91506000820361218d5761218c612018565b5b600182039050919050565b60008190508160005260206000209050919050565b60006020601f8301049050919050565b600082821b905092915050565b6000600883026121fa7fffffffffffffffffffffffffffffffffffffffffffffffffffffffffffffffff826121bd565b61220486836121bd565b95508019841693508086168417925050509392505050565b6000819050919050565b600061224161223c61223784611739565b61221c565b611739565b9050919050565b6000819050919050565b61225b83612226565b61226f61226782612248565b8484546121ca565b825550505050565b600090565b612284612277565b61228f818484612252565b505050565b5b818110156122b3576122a860008261227c565b600181019050612295565b5050565b601f8211156122f8576122c981612198565b6122d2846121ad565b810160208510156122e1578190505b6122f56122ed856121ad565b830182612294565b50505b505050565b600082821c905092915050565b600061231b600019846008026122fd565b1980831691505092915050565b6000612334838361230a565b9150826002028217905092915050565b61234d82611793565b67ffffffffffffffff81111561236657612365611c34565b5b6123708254611fe7565b61237b8282856122b7565b600060209050601f8311600181146123ae576000841561239c578287015190505b6123a68582612328565b86555061240e565b601f1984166123bc86612198565b60005b828110156123e4578489015182556001820191506020850194506020810190506123bf565b8683101561240157848901516123fd601f89168261230a565b8355505b6001600288020188555050505b505050505050565b7f546172676574206c696b6573206d75737420626520677265617465722074686160008201527f6e20300000000000000000000000000000000000000000000000000000000000602082015250565b60006124726023836120f2565b915061247d82612416565b604082019050919050565b600060208201905081810360008301526124a181612465565b9050919050565b6124b181611739565b82525050565b60006020820190506124cc60008301846124a8565b92915050565b6000815190506124e181611dd7565b92915050565b6000602082840312156124fd576124fc611b9d565b5b600061250b848285016124d2565b91505092915050565b7f596f75206d757374206f776e20746865204e4654000000000000000000000000600082015250565b600061254a6014836120f2565b915061255582612514565b602082019050919050565b600060208201905081810360008301526125798161253d565b9050919050565b60006060820190506125956000830186611c00565b6125a26020830185611c00565b6125af60408301846124a8565b949350505050565b7f4e6f74206120676976656177617920706f737400000000000000000000000000600082015250565b60006125ed6013836120f2565b91506125f8826125b7565b602082019050919050565b6000602082019050818103600083015261261c816125e0565b9050919050565b7f546172676574206c696b6573206e6f7420726561636865640000000000000000600082015250565b60006126596018836120f2565b915061266482612623565b602082019050919050565b600060208201905081810360008301526126888161264c565b9050919050565b7f476976656177617920686173206265656e20636f6d706c657465640000000000600082015250565b60006126c5601b836120f2565b91506126d08261268f565b602082019050919050565b600060208201905081810360008301526126f4816126b8565b9050919050565b7f4e487b7100000000000000000000000000000000000000000000000000000000600052603160045260246000fd5b7f4c696b657320697320656d707479000000000000000000000000000000000000600082015250565b6000612760600e836120f2565b915061276b8261272a565b602082019050919050565b6000602082019050818103600083015261278f81612753565b9050919050565b6000819050919050565b6127b16127ac82611739565b612796565b82525050565b60008160601b9050919050565b60006127cf826127b7565b9050919050565b60006127e1826127c4565b9050919050565b6127f96127f482611772565b6127d6565b82525050565b600061280b82866127a0565b60208201915061281b82856127a0565b60208201915061282b82846127e8565b601482019150819050949350505050565b7f4e487b7100000000000000000000000000000000000000000000000000000000600052601260045260246000fd5b600061287682611739565b915061288183611739565b9250826128915761289061283c565b5b82820690509291505056fea264697066735822122031fe8d091016114b6608cd397bb66de5ca8661d7ed5b32e5865fb4104a69778d64736f6c63430008180033",
  "linkReferences": {},
  "deployedLinkReferences": {}
}