{
  "_format": "hh-sol-artifact-1",
  "contractName": "Oktogram",
  "sourceName": "contracts/Oktogram.sol",
  "abi": [
    {
      "inputs": [
        {
          "internalType": "address",
          "name": "owner",
          "type": "address"
        }
      ],
      "name": "OwnableInvalidOwner",
      "type": "error"
    },
    {
      "inputs": [
        {
          "internalType": "address",
          "name": "account",
          "type": "address"
        }
      ],
      "name": "OwnableUnauthorizedAccount",
      "type": "error"
    },
    {
      "anonymous": false,
      "inputs": [
        {
          "indexed": true,
          "internalType": "address",
          "name": "previousOwner",
          "type": "address"
        },
        {
          "indexed": true,
          "internalType": "address",
          "name": "newOwner",
          "type": "address"
        }
      ],
      "name": "OwnershipTransferred",
      "type": "event"
    },
    {
      "inputs": [],
      "name": "addFriend",
      "outputs": [],
      "stateMutability": "nonpayable",
      "type": "function"
    },
    {
      "inputs": [
        {
          "internalType": "string",
          "name": "username",
          "type": "string"
        },
        {
          "internalType": "string",
          "name": "image",
          "type": "string"
        },
        {
          "internalType": "string",
          "name": "content",
          "type": "string"
        },
        {
          "internalType": "address",
          "name": "nftAddress",
          "type": "address"
        },
        {
          "internalType": "uint256",
          "name": "nftTokenId",
          "type": "uint256"
        },
        {
          "internalType": "uint256",
          "name": "targetLikes",
          "type": "uint256"
        }
      ],
      "name": "createGiveawayPost",
      "outputs": [],
      "stateMutability": "nonpayable",
      "type": "function"
    },
    {
      "inputs": [
        {
          "internalType": "string",
          "name": "username",
          "type": "string"
        },
        {
          "internalType": "string",
          "name": "image",
          "type": "string"
        },
        {
          "internalType": "string",
          "name": "content",
          "type": "string"
        }
      ],
      "name": "createPost",
      "outputs": [],
      "stateMutability": "nonpayable",
      "type": "function"
    },
    {
      "inputs": [
        {
          "internalType": "string",
          "name": "username",
          "type": "string"
        },
        {
          "internalType": "string",
          "name": "image",
          "type": "string"
        }
      ],
      "name": "createStory",
      "outputs": [],
      "stateMutability": "nonpayable",
      "type": "function"
    },
    {
      "inputs": [],
      "name": "getAllPosts",
      "outputs": [
        {
          "components": [
            {
              "internalType": "uint256",
              "name": "id",
              "type": "uint256"
            },
            {
              "components": [
                {
                  "internalType": "address",
                  "name": "author",
                  "type": "address"
                },
                {
                  "internalType": "string",
                  "name": "name",
                  "type": "string"
                }
              ],
              "internalType": "struct Oktogram.User",
              "name": "user",
              "type": "tuple"
            },
            {
              "internalType": "string",
              "name": "image",
              "type": "string"
            },
            {
              "internalType": "string",
              "name": "content",
              "type": "string"
            },
            {
              "internalType": "uint256",
              "name": "createdAt",
              "type": "uint256"
            },
            {
              "internalType": "uint256",
              "name": "likes",
              "type": "uint256"
            },
            {
              "internalType": "uint256",
              "name": "tips",
              "type": "uint256"
            },
            {
              "internalType": "bool",
              "name": "isGiveaway",
              "type": "bool"
            },
            {
              "internalType": "bool",
              "name": "giveawayCompleted",
              "type": "bool"
            },
            {
              "internalType": "address",
              "name": "nftAddress",
              "type": "address"
            },
            {
              "internalType": "uint256",
              "name": "nftTokenId",
              "type": "uint256"
            },
            {
              "internalType": "uint256",
              "name": "targetLikes",
              "type": "uint256"
            }
          ],
          "internalType": "struct Oktogram.Post[]",
          "name": "",
          "type": "tuple[]"
        }
      ],
      "stateMutability": "view",
      "type": "function"
    },
    {
      "inputs": [],
      "name": "getAllStories",
      "outputs": [
        {
          "components": [
            {
              "internalType": "uint256",
              "name": "id",
              "type": "uint256"
            },
            {
              "components": [
                {
                  "internalType": "address",
                  "name": "author",
                  "type": "address"
                },
                {
                  "internalType": "string",
                  "name": "name",
                  "type": "string"
                }
              ],
              "internalType": "struct Oktogram.User",
              "name": "user",
              "type": "tuple"
            },
            {
              "internalType": "string",
              "name": "image",
              "type": "string"
            },
            {
              "internalType": "uint256",
              "name": "createdAt",
              "type": "uint256"
            }
          ],
          "internalType": "struct Oktogram.Story[]",
          "name": "",
          "type": "tuple[]"
        }
      ],
      "stateMutability": "view",
      "type": "function"
    },
    {
      "inputs": [],
      "name": "owner",
      "outputs": [
        {
          "internalType": "address",
          "name": "",
          "type": "address"
        }
      ],
      "stateMutability": "view",
      "type": "function"
    },
    {
      "inputs": [],
      "name": "renounceOwnership",
      "outputs": [],
      "stateMutability": "nonpayable",
      "type": "function"
    },
    {
      "inputs": [
        {
          "internalType": "uint256",
          "name": "postId",
          "type": "uint256"
        }
      ],
      "name": "toggleLike",
      "outputs": [],
      "stateMutability": "nonpayable",
      "type": "function"
    },
    {
      "inputs": [
        {
          "internalType": "address",
          "name": "newOwner",
          "type": "address"
        }
      ],
      "name": "transferOwnership",
      "outputs": [],
      "stateMutability": "nonpayable",
      "type": "function"
    }
  ],
  "bytecode": "0x6080604052600060015560006002553480156200001b57600080fd5b5033600073ffffffffffffffffffffffffffffffffffffffff168173ffffffffffffffffffffffffffffffffffffffff1603620000925760006040517f1e4fbdf7000000000000000000000000000000000000000000000000000000008152600401620000899190620001b3565b60405180910390fd5b620000a381620000aa60201b60201c565b50620001d0565b60008060009054906101000a900473ffffffffffffffffffffffffffffffffffffffff169050816000806101000a81548173ffffffffffffffffffffffffffffffffffffffff021916908373ffffffffffffffffffffffffffffffffffffffff1602179055508173ffffffffffffffffffffffffffffffffffffffff168173ffffffffffffffffffffffffffffffffffffffff167f8be0079c531659141344cd1fd0a4f28419497f9722a3daafe3b4186f6b6457e060405160405180910390a35050565b600073ffffffffffffffffffffffffffffffffffffffff82169050919050565b60006200019b826200016e565b9050919050565b620001ad816200018e565b82525050565b6000602082019050620001ca6000830184620001a2565b92915050565b61256a80620001e06000396000f3fe608060405234801561001057600080fd5b506004361061009e5760003560e01c80639151d403116100665780639151d40314610123578063a5d9335c1461013f578063b177c3f71461015b578063e8a4a1eb14610165578063f2fde38b146101815761009e565b8063191bbe2a146100a357806330561100146100c157806354398d18146100df578063715018a6146100fb5780638da5cb5b14610105575b600080fd5b6100ab61019d565b6040516100b8919061176a565b60405180910390f35b6100c961040e565b6040516100d6919061197b565b60405180910390f35b6100f960048036038101906100f491906119dd565b6107c6565b005b610103610977565b005b61010d61098b565b60405161011a9190611a19565b60405180910390f35b61013d60048036038101906101389190611b69565b6109b4565b005b61015960048036038101906101549190611c0d565b610aa3565b005b610163610dcd565b005b61017f600480360381019061017a9190611cee565b610dcf565b005b61019b60048036038101906101969190611d95565b610f1f565b005b6060600060025467ffffffffffffffff8111156101bd576101bc611a3e565b5b6040519080825280602002602001820160405280156101f657816020015b6101e3611438565b8152602001906001900390816101db5790505b5090506000600190505b6002548111610406576004600082815260200190815260200160002060405180608001604052908160008201548152602001600182016040518060400160405290816000820160009054906101000a900473ffffffffffffffffffffffffffffffffffffffff1673ffffffffffffffffffffffffffffffffffffffff1673ffffffffffffffffffffffffffffffffffffffff1681526020016001820180546102a790611df1565b80601f01602080910402602001604051908101604052809291908181526020018280546102d390611df1565b80156103205780601f106102f557610100808354040283529160200191610320565b820191906000526020600020905b81548152906001019060200180831161030357829003601f168201915b505050505081525050815260200160038201805461033d90611df1565b80601f016020809104026020016040519081016040528092919081815260200182805461036990611df1565b80156103b65780601f1061038b576101008083540402835291602001916103b6565b820191906000526020600020905b81548152906001019060200180831161039957829003601f168201915b50505050508152602001600482015481525050826001836103d79190611e51565b815181106103e8576103e7611e85565b5b602002602001018190525080806103fe90611eb4565b915050610200565b508091505090565b6060600060015467ffffffffffffffff81111561042e5761042d611a3e565b5b60405190808252806020026020018201604052801561046757816020015b610454611466565b81526020019060019003908161044c5790505b5090506000600190505b60015481116107be57600360008281526020019081526020016000206040518061018001604052908160008201548152602001600182016040518060400160405290816000820160009054906101000a900473ffffffffffffffffffffffffffffffffffffffff1673ffffffffffffffffffffffffffffffffffffffff1673ffffffffffffffffffffffffffffffffffffffff16815260200160018201805461051990611df1565b80601f016020809104026020016040519081016040528092919081815260200182805461054590611df1565b80156105925780601f1061056757610100808354040283529160200191610592565b820191906000526020600020905b81548152906001019060200180831161057557829003601f168201915b50505050508152505081526020016003820180546105af90611df1565b80601f01602080910402602001604051908101604052809291908181526020018280546105db90611df1565b80156106285780601f106105fd57610100808354040283529160200191610628565b820191906000526020600020905b81548152906001019060200180831161060b57829003601f168201915b5050505050815260200160048201805461064190611df1565b80601f016020809104026020016040519081016040528092919081815260200182805461066d90611df1565b80156106ba5780601f1061068f576101008083540402835291602001916106ba565b820191906000526020600020905b81548152906001019060200180831161069d57829003601f168201915b505050505081526020016005820154815260200160068201548152602001600782015481526020016008820160009054906101000a900460ff161515151581526020016008820160019054906101000a900460ff161515151581526020016008820160029054906101000a900473ffffffffffffffffffffffffffffffffffffffff1673ffffffffffffffffffffffffffffffffffffffff1673ffffffffffffffffffffffffffffffffffffffff16815260200160098201548152602001600a820154815250508260018361078f9190611e51565b815181106107a05761079f611e85565b5b602002602001018190525080806107b690611eb4565b915050610471565b508091505090565b6000600360008381526020019081526020016000209050600073ffffffffffffffffffffffffffffffffffffffff168160010160000160009054906101000a900473ffffffffffffffffffffffffffffffffffffffff1673ffffffffffffffffffffffffffffffffffffffff1603610873576040517f08c379a000000000000000000000000000000000000000000000000000000000815260040161086a90611f59565b60405180910390fd5b6108983360066000858152602001908152602001600020610fa590919063ffffffff16565b156108e2576108c23360066000858152602001908152602001600020610fd590919063ffffffff16565b508060060160008154809291906108d890611f79565b9190505550610973565b610907336006600085815260200190815260200160002061100590919063ffffffff16565b5080600601600081548092919061091d90611eb4565b91905055508060080160009054906101000a900460ff168015610948575080600a0154816006015410155b801561096357508060080160019054906101000a900460ff16155b156109725761097182611035565b5b5b5050565b61097f61113e565b61098960006111c5565b565b60008060009054906101000a900473ffffffffffffffffffffffffffffffffffffffff16905090565b600260008154809291906109c790611eb4565b919050555060006002549050600060046000838152602001908152602001600020905081816000018190555060405180604001604052803373ffffffffffffffffffffffffffffffffffffffff168152602001858152508160010160008201518160000160006101000a81548173ffffffffffffffffffffffffffffffffffffffff021916908373ffffffffffffffffffffffffffffffffffffffff1602179055506020820151816001019081610a7e919061214e565b5090505082816003019081610a93919061214e565b5043816004018190555050505050565b60008111610ae6576040517f08c379a0000000000000000000000000000000000000000000000000000000008152600401610add90612292565b60405180910390fd5b60008390503373ffffffffffffffffffffffffffffffffffffffff168173ffffffffffffffffffffffffffffffffffffffff16636352211e856040518263ffffffff1660e01b8152600401610b3b91906122c1565b602060405180830381865afa158015610b58573d6000803e3d6000fd5b505050506040513d601f19601f82011682018060405250810190610b7c91906122f1565b73ffffffffffffffffffffffffffffffffffffffff1614610bd2576040517f08c379a0000000000000000000000000000000000000000000000000000000008152600401610bc99061236a565b60405180910390fd5b60016000815480929190610be590611eb4565b919050555060006001549050600060036000838152602001908152602001600020905081816000018190555060405180604001604052803373ffffffffffffffffffffffffffffffffffffffff1681526020018a8152508160010160008201518160000160006101000a81548173ffffffffffffffffffffffffffffffffffffffff021916908373ffffffffffffffffffffffffffffffffffffffff1602179055506020820151816001019081610c9c919061214e565b5090505087816003019081610cb1919061214e565b5086816004019081610cc3919061214e565b50438160050181905550600081600601819055506000816007018190555060018160080160006101000a81548160ff021916908315150217905550858160080160026101000a81548173ffffffffffffffffffffffffffffffffffffffff021916908373ffffffffffffffffffffffffffffffffffffffff1602179055508481600901819055508381600a01819055508273ffffffffffffffffffffffffffffffffffffffff166323b872dd3330886040518463ffffffff1660e01b8152600401610d909392919061238a565b600060405180830381600087803b158015610daa57600080fd5b505af1158015610dbe573d6000803e3d6000fd5b50505050505050505050505050565b565b60016000815480929190610de290611eb4565b919050555060006001549050600060036000838152602001908152602001600020905081816000018190555060405180604001604052803373ffffffffffffffffffffffffffffffffffffffff168152602001868152508160010160008201518160000160006101000a81548173ffffffffffffffffffffffffffffffffffffffff021916908373ffffffffffffffffffffffffffffffffffffffff1602179055506020820151816001019081610e99919061214e565b5090505083816003019081610eae919061214e565b5082816004019081610ec0919061214e565b50438160050181905550600081600601819055506000816007018190555060008160080160006101000a81548160ff02191690831515021790555060018160080160016101000a81548160ff0219169083151502179055505050505050565b610f2761113e565b600073ffffffffffffffffffffffffffffffffffffffff168173ffffffffffffffffffffffffffffffffffffffff1603610f995760006040517f1e4fbdf7000000000000000000000000000000000000000000000000000000008152600401610f909190611a19565b60405180910390fd5b610fa2816111c5565b50565b6000610fcd836000018373ffffffffffffffffffffffffffffffffffffffff1660001b611289565b905092915050565b6000610ffd836000018373ffffffffffffffffffffffffffffffffffffffff1660001b6112ac565b905092915050565b600061102d836000018373ffffffffffffffffffffffffffffffffffffffff1660001b6113c0565b905092915050565b60006003600083815260200190815260200160002090508060080160009054906101000a900460ff1661109d576040517f08c379a00000000000000000000000000000000000000000000000000000000081526004016110949061240d565b60405180910390fd5b80600a0154816006015410156110e8576040517f08c379a00000000000000000000000000000000000000000000000000000000081526004016110df90612479565b60405180910390fd5b8060080160019054906101000a900460ff161561113a576040517f08c379a0000000000000000000000000000000000000000000000000000000008152600401611131906124e5565b60405180910390fd5b5050565b611146611430565b73ffffffffffffffffffffffffffffffffffffffff1661116461098b565b73ffffffffffffffffffffffffffffffffffffffff16146111c357611187611430565b6040517f118cdaa70000000000000000000000000000000000000000000000000000000081526004016111ba9190611a19565b60405180910390fd5b565b60008060009054906101000a900473ffffffffffffffffffffffffffffffffffffffff169050816000806101000a81548173ffffffffffffffffffffffffffffffffffffffff021916908373ffffffffffffffffffffffffffffffffffffffff1602179055508173ffffffffffffffffffffffffffffffffffffffff168173ffffffffffffffffffffffffffffffffffffffff167f8be0079c531659141344cd1fd0a4f28419497f9722a3daafe3b4186f6b6457e060405160405180910390a35050565b600080836001016000848152602001908152602001600020541415905092915050565b600080836001016000848152602001908152602001600020549050600081146113b45760006001826112de9190611e51565b90506000600186600001805490506112f69190611e51565b905080821461136557600086600001828154811061131757611316611e85565b5b906000526020600020015490508087600001848154811061133b5761133a611e85565b5b90600052602060002001819055508387600101600083815260200190815260200160002081905550505b8560000180548061137957611378612505565b5b6001900381819060005260206000200160009055905585600101600086815260200190815260200160002060009055600193505050506113ba565b60009150505b92915050565b60006113cc8383611289565b61142557826000018290806001815401808255809150506001900390600052602060002001600090919091909150558260000180549050836001016000848152602001908152602001600020819055506001905061142a565b600090505b92915050565b600033905090565b6040518060800160405280600081526020016114526114e7565b815260200160608152602001600081525090565b604051806101800160405280600081526020016114816114e7565b81526020016060815260200160608152602001600081526020016000815260200160008152602001600015158152602001600015158152602001600073ffffffffffffffffffffffffffffffffffffffff16815260200160008152602001600081525090565b6040518060400160405280600073ffffffffffffffffffffffffffffffffffffffff168152602001606081525090565b600081519050919050565b600082825260208201905092915050565b6000819050602082019050919050565b6000819050919050565b61155681611543565b82525050565b600073ffffffffffffffffffffffffffffffffffffffff82169050919050565b60006115878261155c565b9050919050565b6115978161157c565b82525050565b600081519050919050565b600082825260208201905092915050565b60005b838110156115d75780820151818401526020810190506115bc565b60008484015250505050565b6000601f19601f8301169050919050565b60006115ff8261159d565b61160981856115a8565b93506116198185602086016115b9565b611622816115e3565b840191505092915050565b6000604083016000830151611645600086018261158e565b506020830151848203602086015261165d82826115f4565b9150508091505092915050565b6000608083016000830151611682600086018261154d565b506020830151848203602086015261169a828261162d565b915050604083015184820360408601526116b482826115f4565b91505060608301516116c9606086018261154d565b508091505092915050565b60006116e0838361166a565b905092915050565b6000602082019050919050565b600061170082611517565b61170a8185611522565b93508360208202850161171c85611533565b8060005b85811015611758578484038952815161173985826116d4565b9450611744836116e8565b925060208a01995050600181019050611720565b50829750879550505050505092915050565b6000602082019050818103600083015261178481846116f5565b905092915050565b600081519050919050565b600082825260208201905092915050565b6000819050602082019050919050565b60008115159050919050565b6117cd816117b8565b82525050565b6000610180830160008301516117ec600086018261154d565b5060208301518482036020860152611804828261162d565b9150506040830151848203604086015261181e82826115f4565b9150506060830151848203606086015261183882826115f4565b915050608083015161184d608086018261154d565b5060a083015161186060a086018261154d565b5060c083015161187360c086018261154d565b5060e083015161188660e08601826117c4565b5061010083015161189b6101008601826117c4565b506101208301516118b061012086018261158e565b506101408301516118c561014086018261154d565b506101608301516118da61016086018261154d565b508091505092915050565b60006118f183836117d3565b905092915050565b6000602082019050919050565b60006119118261178c565b61191b8185611797565b93508360208202850161192d856117a8565b8060005b85811015611969578484038952815161194a85826118e5565b9450611955836118f9565b925060208a01995050600181019050611931565b50829750879550505050505092915050565b600060208201905081810360008301526119958184611906565b905092915050565b6000604051905090565b600080fd5b600080fd5b6119ba81611543565b81146119c557600080fd5b50565b6000813590506119d7816119b1565b92915050565b6000602082840312156119f3576119f26119a7565b5b6000611a01848285016119c8565b91505092915050565b611a138161157c565b82525050565b6000602082019050611a2e6000830184611a0a565b92915050565b600080fd5b600080fd5b7f4e487b7100000000000000000000000000000000000000000000000000000000600052604160045260246000fd5b611a76826115e3565b810181811067ffffffffffffffff82111715611a9557611a94611a3e565b5b80604052505050565b6000611aa861199d565b9050611ab48282611a6d565b919050565b600067ffffffffffffffff821115611ad457611ad3611a3e565b5b611add826115e3565b9050602081019050919050565b82818337600083830152505050565b6000611b0c611b0784611ab9565b611a9e565b905082815260208101848484011115611b2857611b27611a39565b5b611b33848285611aea565b509392505050565b600082601f830112611b5057611b4f611a34565b5b8135611b60848260208601611af9565b91505092915050565b60008060408385031215611b8057611b7f6119a7565b5b600083013567ffffffffffffffff811115611b9e57611b9d6119ac565b5b611baa85828601611b3b565b925050602083013567ffffffffffffffff811115611bcb57611bca6119ac565b5b611bd785828601611b3b565b9150509250929050565b611bea8161157c565b8114611bf557600080fd5b50565b600081359050611c0781611be1565b92915050565b60008060008060008060c08789031215611c2a57611c296119a7565b5b600087013567ffffffffffffffff811115611c4857611c476119ac565b5b611c5489828a01611b3b565b965050602087013567ffffffffffffffff811115611c7557611c746119ac565b5b611c8189828a01611b3b565b955050604087013567ffffffffffffffff811115611ca257611ca16119ac565b5b611cae89828a01611b3b565b9450506060611cbf89828a01611bf8565b9350506080611cd089828a016119c8565b92505060a0611ce189828a016119c8565b9150509295509295509295565b600080600060608486031215611d0757611d066119a7565b5b600084013567ffffffffffffffff811115611d2557611d246119ac565b5b611d3186828701611b3b565b935050602084013567ffffffffffffffff811115611d5257611d516119ac565b5b611d5e86828701611b3b565b925050604084013567ffffffffffffffff811115611d7f57611d7e6119ac565b5b611d8b86828701611b3b565b9150509250925092565b600060208284031215611dab57611daa6119a7565b5b6000611db984828501611bf8565b91505092915050565b7f4e487b7100000000000000000000000000000000000000000000000000000000600052602260045260246000fd5b60006002820490506001821680611e0957607f821691505b602082108103611e1c57611e1b611dc2565b5b50919050565b7f4e487b7100000000000000000000000000000000000000000000000000000000600052601160045260246000fd5b6000611e5c82611543565b9150611e6783611543565b9250828203905081811115611e7f57611e7e611e22565b5b92915050565b7f4e487b7100000000000000000000000000000000000000000000000000000000600052603260045260246000fd5b6000611ebf82611543565b91507fffffffffffffffffffffffffffffffffffffffffffffffffffffffffffffffff8203611ef157611ef0611e22565b5b600182019050919050565b600082825260208201905092915050565b7f506f737420646f6573206e6f7420657869737400000000000000000000000000600082015250565b6000611f43601383611efc565b9150611f4e82611f0d565b602082019050919050565b60006020820190508181036000830152611f7281611f36565b9050919050565b6000611f8482611543565b915060008203611f9757611f96611e22565b5b600182039050919050565b60008190508160005260206000209050919050565b60006020601f8301049050919050565b600082821b905092915050565b6000600883026120047fffffffffffffffffffffffffffffffffffffffffffffffffffffffffffffffff82611fc7565b61200e8683611fc7565b95508019841693508086168417925050509392505050565b6000819050919050565b600061204b61204661204184611543565b612026565b611543565b9050919050565b6000819050919050565b61206583612030565b61207961207182612052565b848454611fd4565b825550505050565b600090565b61208e612081565b61209981848461205c565b505050565b5b818110156120bd576120b2600082612086565b60018101905061209f565b5050565b601f821115612102576120d381611fa2565b6120dc84611fb7565b810160208510156120eb578190505b6120ff6120f785611fb7565b83018261209e565b50505b505050565b600082821c905092915050565b600061212560001984600802612107565b1980831691505092915050565b600061213e8383612114565b9150826002028217905092915050565b6121578261159d565b67ffffffffffffffff8111156121705761216f611a3e565b5b61217a8254611df1565b6121858282856120c1565b600060209050601f8311600181146121b857600084156121a6578287015190505b6121b08582612132565b865550612218565b601f1984166121c686611fa2565b60005b828110156121ee578489015182556001820191506020850194506020810190506121c9565b8683101561220b5784890151612207601f891682612114565b8355505b6001600288020188555050505b505050505050565b7f546172676574206c696b6573206d75737420626520677265617465722074686160008201527f6e20300000000000000000000000000000000000000000000000000000000000602082015250565b600061227c602383611efc565b915061228782612220565b604082019050919050565b600060208201905081810360008301526122ab8161226f565b9050919050565b6122bb81611543565b82525050565b60006020820190506122d660008301846122b2565b92915050565b6000815190506122eb81611be1565b92915050565b600060208284031215612307576123066119a7565b5b6000612315848285016122dc565b91505092915050565b7f596f75206d757374206f776e20746865204e4654000000000000000000000000600082015250565b6000612354601483611efc565b915061235f8261231e565b602082019050919050565b6000602082019050818103600083015261238381612347565b9050919050565b600060608201905061239f6000830186611a0a565b6123ac6020830185611a0a565b6123b960408301846122b2565b949350505050565b7f4e6f74206120676976656177617920706f737400000000000000000000000000600082015250565b60006123f7601383611efc565b9150612402826123c1565b602082019050919050565b60006020820190508181036000830152612426816123ea565b9050919050565b7f546172676574206c696b6573206e6f7420726561636865640000000000000000600082015250565b6000612463601883611efc565b915061246e8261242d565b602082019050919050565b6000602082019050818103600083015261249281612456565b9050919050565b7f476976656177617920686173206265656e20636f6d706c657465640000000000600082015250565b60006124cf601b83611efc565b91506124da82612499565b602082019050919050565b600060208201905081810360008301526124fe816124c2565b9050919050565b7f4e487b7100000000000000000000000000000000000000000000000000000000600052603160045260246000fdfea2646970667358221220d394608d65c4d01dc76d3fd095b635f24f58c8576ccd7e6fb5a8e74934bfd8b164736f6c63430008180033",
  "linkReferences": {},
  "deployedLinkReferences": {}
}