{
  "_format": "hh-sol-artifact-1",
  "contractName": "Oktogram",
  "sourceName": "contracts/Oktogram.sol",
  "abi": [
    {
      "inputs": [
        {
          "internalType": "address",
          "name": "owner",
          "type": "address"
        }
      ],
      "name": "OwnableInvalidOwner",
      "type": "error"
    },
    {
      "inputs": [
        {
          "internalType": "address",
          "name": "account",
          "type": "address"
        }
      ],
      "name": "OwnableUnauthorizedAccount",
      "type": "error"
    },
    {
      "anonymous": false,
      "inputs": [
        {
          "indexed": true,
          "internalType": "address",
          "name": "previousOwner",
          "type": "address"
        },
        {
          "indexed": true,
          "internalType": "address",
          "name": "newOwner",
          "type": "address"
        }
      ],
      "name": "OwnershipTransferred",
      "type": "event"
    },
    {
      "inputs": [
        {
          "internalType": "string",
          "name": "image",
          "type": "string"
        },
        {
          "internalType": "string",
          "name": "content",
          "type": "string"
        },
        {
          "internalType": "address",
          "name": "nftAddress",
          "type": "address"
        },
        {
          "internalType": "uint256",
          "name": "nftTokenId",
          "type": "uint256"
        },
        {
          "internalType": "uint256",
          "name": "targetLikes",
          "type": "uint256"
        }
      ],
      "name": "createGiveawayPost",
      "outputs": [],
      "stateMutability": "nonpayable",
      "type": "function"
    },
    {
      "inputs": [
        {
          "internalType": "string",
          "name": "image",
          "type": "string"
        },
        {
          "internalType": "string",
          "name": "content",
          "type": "string"
        }
      ],
      "name": "createPost",
      "outputs": [],
      "stateMutability": "nonpayable",
      "type": "function"
    },
    {
      "inputs": [],
      "name": "getAllPosts",
      "outputs": [
        {
          "components": [
            {
              "internalType": "uint256",
              "name": "id",
              "type": "uint256"
            },
            {
              "internalType": "address",
              "name": "author",
              "type": "address"
            },
            {
              "internalType": "string",
              "name": "image",
              "type": "string"
            },
            {
              "internalType": "string",
              "name": "content",
              "type": "string"
            },
            {
              "internalType": "uint256",
              "name": "createdAt",
              "type": "uint256"
            },
            {
              "internalType": "uint256",
              "name": "likes",
              "type": "uint256"
            },
            {
              "internalType": "uint256",
              "name": "tips",
              "type": "uint256"
            },
            {
              "internalType": "bool",
              "name": "isGiveaway",
              "type": "bool"
            },
            {
              "internalType": "bool",
              "name": "giveawayCompleted",
              "type": "bool"
            },
            {
              "internalType": "address",
              "name": "nftAddress",
              "type": "address"
            },
            {
              "internalType": "uint256",
              "name": "nftTokenId",
              "type": "uint256"
            },
            {
              "internalType": "uint256",
              "name": "targetLikes",
              "type": "uint256"
            }
          ],
          "internalType": "struct Oktogram.Post[]",
          "name": "",
          "type": "tuple[]"
        }
      ],
      "stateMutability": "view",
      "type": "function"
    },
    {
      "inputs": [],
      "name": "owner",
      "outputs": [
        {
          "internalType": "address",
          "name": "",
          "type": "address"
        }
      ],
      "stateMutability": "view",
      "type": "function"
    },
    {
      "inputs": [],
      "name": "renounceOwnership",
      "outputs": [],
      "stateMutability": "nonpayable",
      "type": "function"
    },
    {
      "inputs": [
        {
          "internalType": "uint256",
          "name": "postId",
          "type": "uint256"
        }
      ],
      "name": "toggleLike",
      "outputs": [],
      "stateMutability": "nonpayable",
      "type": "function"
    },
    {
      "inputs": [
        {
          "internalType": "address",
          "name": "newOwner",
          "type": "address"
        }
      ],
      "name": "transferOwnership",
      "outputs": [],
      "stateMutability": "nonpayable",
      "type": "function"
    }
  ],
  "bytecode": "0x608060405260006001553480156200001657600080fd5b5033600073ffffffffffffffffffffffffffffffffffffffff168173ffffffffffffffffffffffffffffffffffffffff16036200008d5760006040517f1e4fbdf7000000000000000000000000000000000000000000000000000000008152600401620000849190620001ae565b60405180910390fd5b6200009e81620000a560201b60201c565b50620001cb565b60008060009054906101000a900473ffffffffffffffffffffffffffffffffffffffff169050816000806101000a81548173ffffffffffffffffffffffffffffffffffffffff021916908373ffffffffffffffffffffffffffffffffffffffff1602179055508173ffffffffffffffffffffffffffffffffffffffff168173ffffffffffffffffffffffffffffffffffffffff167f8be0079c531659141344cd1fd0a4f28419497f9722a3daafe3b4186f6b6457e060405160405180910390a35050565b600073ffffffffffffffffffffffffffffffffffffffff82169050919050565b6000620001968262000169565b9050919050565b620001a88162000189565b82525050565b6000602082019050620001c560008301846200019d565b92915050565b611dab80620001db6000396000f3fe608060405234801561001057600080fd5b506004361061007d5760003560e01c8063715018a61161005b578063715018a6146100d85780638da5cb5b146100e25780639e8b11bd14610100578063f2fde38b1461011c5761007d565b80633056110014610082578063392338f5146100a057806354398d18146100bc575b600080fd5b61008a610138565b6040516100979190611291565b60405180910390f35b6100ba60048036038101906100b591906113fc565b61044a565b005b6100d660048036038101906100d191906114a0565b61054d565b005b6100e06106fb565b005b6100ea61070f565b6040516100f791906114dc565b60405180910390f35b61011a60048036038101906101159190611523565b610738565b005b610136600480360381019061013191906115d6565b610a15565b005b6060600060015467ffffffffffffffff811115610158576101576112d1565b5b60405190808252806020026020018201604052801561019157816020015b61017e610f2e565b8152602001906001900390816101765790505b5090506000600190505b6001548111610442576002600082815260200190815260200160002060405180610180016040529081600082015481526020016001820160009054906101000a900473ffffffffffffffffffffffffffffffffffffffff1673ffffffffffffffffffffffffffffffffffffffff1673ffffffffffffffffffffffffffffffffffffffff16815260200160028201805461023390611632565b80601f016020809104026020016040519081016040528092919081815260200182805461025f90611632565b80156102ac5780601f10610281576101008083540402835291602001916102ac565b820191906000526020600020905b81548152906001019060200180831161028f57829003601f168201915b505050505081526020016003820180546102c590611632565b80601f01602080910402602001604051908101604052809291908181526020018280546102f190611632565b801561033e5780601f106103135761010080835404028352916020019161033e565b820191906000526020600020905b81548152906001019060200180831161032157829003601f168201915b505050505081526020016004820154815260200160058201548152602001600682015481526020016007820160009054906101000a900460ff161515151581526020016007820160019054906101000a900460ff161515151581526020016007820160029054906101000a900473ffffffffffffffffffffffffffffffffffffffff1673ffffffffffffffffffffffffffffffffffffffff1673ffffffffffffffffffffffffffffffffffffffff16815260200160088201548152602001600982015481525050826001836104139190611692565b81518110610424576104236116c6565b5b6020026020010181905250808061043a906116f5565b91505061019b565b508091505090565b6001600081548092919061045d906116f5565b9190505550600060015490506000600260008381526020019081526020016000209050818160000181905550338160010160006101000a81548173ffffffffffffffffffffffffffffffffffffffff021916908373ffffffffffffffffffffffffffffffffffffffff160217905550838160020190816104dd91906118e9565b50828160030190816104ef91906118e9565b50438160040181905550600081600501819055506000816006018190555060008160070160006101000a81548160ff02191690831515021790555060018160070160016101000a81548160ff02191690831515021790555050505050565b6000600260008381526020019081526020016000209050600073ffffffffffffffffffffffffffffffffffffffff168160010160009054906101000a900473ffffffffffffffffffffffffffffffffffffffff1673ffffffffffffffffffffffffffffffffffffffff16036105f7576040517f08c379a00000000000000000000000000000000000000000000000000000000081526004016105ee90611a18565b60405180910390fd5b61061c3360046000858152602001908152602001600020610a9b90919063ffffffff16565b15610666576106463360046000858152602001908152602001600020610acb90919063ffffffff16565b5080600501600081548092919061065c90611a38565b91905055506106f7565b61068b3360046000858152602001908152602001600020610afb90919063ffffffff16565b508060050160008154809291906106a1906116f5565b91905055508060070160009054906101000a900460ff1680156106cc57508060090154816005015410155b80156106e757508060070160019054906101000a900460ff16155b156106f6576106f582610b2b565b5b5b5050565b610703610c34565b61070d6000610cbb565b565b60008060009054906101000a900473ffffffffffffffffffffffffffffffffffffffff16905090565b6000811161077b576040517f08c379a000000000000000000000000000000000000000000000000000000000815260040161077290611ad3565b60405180910390fd5b60008390503373ffffffffffffffffffffffffffffffffffffffff168173ffffffffffffffffffffffffffffffffffffffff16636352211e856040518263ffffffff1660e01b81526004016107d09190611b02565b602060405180830381865afa1580156107ed573d6000803e3d6000fd5b505050506040513d601f19601f820116820180604052508101906108119190611b32565b73ffffffffffffffffffffffffffffffffffffffff1614610867576040517f08c379a000000000000000000000000000000000000000000000000000000000815260040161085e90611bab565b60405180910390fd5b6001600081548092919061087a906116f5565b9190505550600060015490506000600260008381526020019081526020016000209050818160000181905550338160010160006101000a81548173ffffffffffffffffffffffffffffffffffffffff021916908373ffffffffffffffffffffffffffffffffffffffff160217905550878160020190816108fa91906118e9565b508681600301908161090c91906118e9565b50438160040181905550600081600501819055506000816006018190555060018160070160006101000a81548160ff021916908315150217905550858160070160026101000a81548173ffffffffffffffffffffffffffffffffffffffff021916908373ffffffffffffffffffffffffffffffffffffffff1602179055508481600801819055508381600901819055508273ffffffffffffffffffffffffffffffffffffffff166323b872dd3330886040518463ffffffff1660e01b81526004016109d993929190611bcb565b600060405180830381600087803b1580156109f357600080fd5b505af1158015610a07573d6000803e3d6000fd5b505050505050505050505050565b610a1d610c34565b600073ffffffffffffffffffffffffffffffffffffffff168173ffffffffffffffffffffffffffffffffffffffff1603610a8f5760006040517f1e4fbdf7000000000000000000000000000000000000000000000000000000008152600401610a8691906114dc565b60405180910390fd5b610a9881610cbb565b50565b6000610ac3836000018373ffffffffffffffffffffffffffffffffffffffff1660001b610d7f565b905092915050565b6000610af3836000018373ffffffffffffffffffffffffffffffffffffffff1660001b610da2565b905092915050565b6000610b23836000018373ffffffffffffffffffffffffffffffffffffffff1660001b610eb6565b905092915050565b60006002600083815260200190815260200160002090508060070160009054906101000a900460ff16610b93576040517f08c379a0000000000000000000000000000000000000000000000000000000008152600401610b8a90611c4e565b60405180910390fd5b806009015481600501541015610bde576040517f08c379a0000000000000000000000000000000000000000000000000000000008152600401610bd590611cba565b60405180910390fd5b8060070160019054906101000a900460ff1615610c30576040517f08c379a0000000000000000000000000000000000000000000000000000000008152600401610c2790611d26565b60405180910390fd5b5050565b610c3c610f26565b73ffffffffffffffffffffffffffffffffffffffff16610c5a61070f565b73ffffffffffffffffffffffffffffffffffffffff1614610cb957610c7d610f26565b6040517f118cdaa7000000000000000000000000000000000000000000000000000000008152600401610cb091906114dc565b60405180910390fd5b565b60008060009054906101000a900473ffffffffffffffffffffffffffffffffffffffff169050816000806101000a81548173ffffffffffffffffffffffffffffffffffffffff021916908373ffffffffffffffffffffffffffffffffffffffff1602179055508173ffffffffffffffffffffffffffffffffffffffff168173ffffffffffffffffffffffffffffffffffffffff167f8be0079c531659141344cd1fd0a4f28419497f9722a3daafe3b4186f6b6457e060405160405180910390a35050565b600080836001016000848152602001908152602001600020541415905092915050565b60008083600101600084815260200190815260200160002054905060008114610eaa576000600182610dd49190611692565b9050600060018660000180549050610dec9190611692565b9050808214610e5b576000866000018281548110610e0d57610e0c6116c6565b5b9060005260206000200154905080876000018481548110610e3157610e306116c6565b5b90600052602060002001819055508387600101600083815260200190815260200160002081905550505b85600001805480610e6f57610e6e611d46565b5b600190038181906000526020600020016000905590558560010160008681526020019081526020016000206000905560019350505050610eb0565b60009150505b92915050565b6000610ec28383610d7f565b610f1b578260000182908060018154018082558091505060019003906000526020600020016000909190919091505582600001805490508360010160008481526020019081526020016000208190555060019050610f20565b600090505b92915050565b600033905090565b60405180610180016040528060008152602001600073ffffffffffffffffffffffffffffffffffffffff1681526020016060815260200160608152602001600081526020016000815260200160008152602001600015158152602001600015158152602001600073ffffffffffffffffffffffffffffffffffffffff16815260200160008152602001600081525090565b600081519050919050565b600082825260208201905092915050565b6000819050602082019050919050565b6000819050919050565b610ffe81610feb565b82525050565b600073ffffffffffffffffffffffffffffffffffffffff82169050919050565b600061102f82611004565b9050919050565b61103f81611024565b82525050565b600081519050919050565b600082825260208201905092915050565b60005b8381101561107f578082015181840152602081019050611064565b60008484015250505050565b6000601f19601f8301169050919050565b60006110a782611045565b6110b18185611050565b93506110c1818560208601611061565b6110ca8161108b565b840191505092915050565b60008115159050919050565b6110ea816110d5565b82525050565b6000610180830160008301516111096000860182610ff5565b50602083015161111c6020860182611036565b5060408301518482036040860152611134828261109c565b9150506060830151848203606086015261114e828261109c565b91505060808301516111636080860182610ff5565b5060a083015161117660a0860182610ff5565b5060c083015161118960c0860182610ff5565b5060e083015161119c60e08601826110e1565b506101008301516111b16101008601826110e1565b506101208301516111c6610120860182611036565b506101408301516111db610140860182610ff5565b506101608301516111f0610160860182610ff5565b508091505092915050565b600061120783836110f0565b905092915050565b6000602082019050919050565b600061122782610fbf565b6112318185610fca565b93508360208202850161124385610fdb565b8060005b8581101561127f578484038952815161126085826111fb565b945061126b8361120f565b925060208a01995050600181019050611247565b50829750879550505050505092915050565b600060208201905081810360008301526112ab818461121c565b905092915050565b6000604051905090565b600080fd5b600080fd5b600080fd5b600080fd5b7f4e487b7100000000000000000000000000000000000000000000000000000000600052604160045260246000fd5b6113098261108b565b810181811067ffffffffffffffff82111715611328576113276112d1565b5b80604052505050565b600061133b6112b3565b90506113478282611300565b919050565b600067ffffffffffffffff821115611367576113666112d1565b5b6113708261108b565b9050602081019050919050565b82818337600083830152505050565b600061139f61139a8461134c565b611331565b9050828152602081018484840111156113bb576113ba6112cc565b5b6113c684828561137d565b509392505050565b600082601f8301126113e3576113e26112c7565b5b81356113f384826020860161138c565b91505092915050565b60008060408385031215611413576114126112bd565b5b600083013567ffffffffffffffff811115611431576114306112c2565b5b61143d858286016113ce565b925050602083013567ffffffffffffffff81111561145e5761145d6112c2565b5b61146a858286016113ce565b9150509250929050565b61147d81610feb565b811461148857600080fd5b50565b60008135905061149a81611474565b92915050565b6000602082840312156114b6576114b56112bd565b5b60006114c48482850161148b565b91505092915050565b6114d681611024565b82525050565b60006020820190506114f160008301846114cd565b92915050565b61150081611024565b811461150b57600080fd5b50565b60008135905061151d816114f7565b92915050565b600080600080600060a0868803121561153f5761153e6112bd565b5b600086013567ffffffffffffffff81111561155d5761155c6112c2565b5b611569888289016113ce565b955050602086013567ffffffffffffffff81111561158a576115896112c2565b5b611596888289016113ce565b94505060406115a78882890161150e565b93505060606115b88882890161148b565b92505060806115c98882890161148b565b9150509295509295909350565b6000602082840312156115ec576115eb6112bd565b5b60006115fa8482850161150e565b91505092915050565b7f4e487b7100000000000000000000000000000000000000000000000000000000600052602260045260246000fd5b6000600282049050600182168061164a57607f821691505b60208210810361165d5761165c611603565b5b50919050565b7f4e487b7100000000000000000000000000000000000000000000000000000000600052601160045260246000fd5b600061169d82610feb565b91506116a883610feb565b92508282039050818111156116c0576116bf611663565b5b92915050565b7f4e487b7100000000000000000000000000000000000000000000000000000000600052603260045260246000fd5b600061170082610feb565b91507fffffffffffffffffffffffffffffffffffffffffffffffffffffffffffffffff820361173257611731611663565b5b600182019050919050565b60008190508160005260206000209050919050565b60006020601f8301049050919050565b600082821b905092915050565b60006008830261179f7fffffffffffffffffffffffffffffffffffffffffffffffffffffffffffffffff82611762565b6117a98683611762565b95508019841693508086168417925050509392505050565b6000819050919050565b60006117e66117e16117dc84610feb565b6117c1565b610feb565b9050919050565b6000819050919050565b611800836117cb565b61181461180c826117ed565b84845461176f565b825550505050565b600090565b61182961181c565b6118348184846117f7565b505050565b5b818110156118585761184d600082611821565b60018101905061183a565b5050565b601f82111561189d5761186e8161173d565b61187784611752565b81016020851015611886578190505b61189a61189285611752565b830182611839565b50505b505050565b600082821c905092915050565b60006118c0600019846008026118a2565b1980831691505092915050565b60006118d983836118af565b9150826002028217905092915050565b6118f282611045565b67ffffffffffffffff81111561190b5761190a6112d1565b5b6119158254611632565b61192082828561185c565b600060209050601f8311600181146119535760008415611941578287015190505b61194b85826118cd565b8655506119b3565b601f1984166119618661173d565b60005b8281101561198957848901518255600182019150602085019450602081019050611964565b868310156119a657848901516119a2601f8916826118af565b8355505b6001600288020188555050505b505050505050565b600082825260208201905092915050565b7f506f737420646f6573206e6f7420657869737400000000000000000000000000600082015250565b6000611a026013836119bb565b9150611a0d826119cc565b602082019050919050565b60006020820190508181036000830152611a31816119f5565b9050919050565b6000611a4382610feb565b915060008203611a5657611a55611663565b5b600182039050919050565b7f546172676574206c696b6573206d75737420626520677265617465722074686160008201527f6e20300000000000000000000000000000000000000000000000000000000000602082015250565b6000611abd6023836119bb565b9150611ac882611a61565b604082019050919050565b60006020820190508181036000830152611aec81611ab0565b9050919050565b611afc81610feb565b82525050565b6000602082019050611b176000830184611af3565b92915050565b600081519050611b2c816114f7565b92915050565b600060208284031215611b4857611b476112bd565b5b6000611b5684828501611b1d565b91505092915050565b7f596f75206d757374206f776e20746865204e4654000000000000000000000000600082015250565b6000611b956014836119bb565b9150611ba082611b5f565b602082019050919050565b60006020820190508181036000830152611bc481611b88565b9050919050565b6000606082019050611be060008301866114cd565b611bed60208301856114cd565b611bfa6040830184611af3565b949350505050565b7f4e6f74206120676976656177617920706f737400000000000000000000000000600082015250565b6000611c386013836119bb565b9150611c4382611c02565b602082019050919050565b60006020820190508181036000830152611c6781611c2b565b9050919050565b7f546172676574206c696b6573206e6f7420726561636865640000000000000000600082015250565b6000611ca46018836119bb565b9150611caf82611c6e565b602082019050919050565b60006020820190508181036000830152611cd381611c97565b9050919050565b7f476976656177617920686173206265656e20636f6d706c657465640000000000600082015250565b6000611d10601b836119bb565b9150611d1b82611cda565b602082019050919050565b60006020820190508181036000830152611d3f81611d03565b9050919050565b7f4e487b7100000000000000000000000000000000000000000000000000000000600052603160045260246000fdfea26469706673582212206130c64e180c9e1781ec8f55fd7fda3e309a29daaa9deff480fc789804edcf8a64736f6c63430008180033",
  "linkReferences": {},
  "deployedLinkReferences": {}
}